{
  "_format": "hh-sol-artifact-1",
  "contractName": "Arthur",
  "sourceName": "contracts/aula03.sol",
  "abi": [
    {
      "inputs": [
        {
          "internalType": "string",
          "name": "nomeNovo",
          "type": "string"
        }
      ],
      "stateMutability": "nonpayable",
      "type": "constructor"
    },
    {
      "anonymous": false,
      "inputs": [
        {
          "indexed": true,
          "internalType": "address",
          "name": "owner",
          "type": "address"
        },
        {
          "indexed": true,
          "internalType": "string",
          "name": "nName",
          "type": "string"
        }
      ],
      "name": "newName",
      "type": "event"
    },
    {
      "inputs": [],
      "name": "name",
      "outputs": [
        {
          "internalType": "string",
          "name": "",
          "type": "string"
        }
      ],
      "stateMutability": "view",
      "type": "function"
    },
    {
      "inputs": [],
      "name": "owner",
      "outputs": [
        {
          "internalType": "address",
          "name": "",
          "type": "address"
        }
      ],
      "stateMutability": "view",
      "type": "function"
    },
    {
      "inputs": [
        {
          "internalType": "string",
          "name": "_newName",
          "type": "string"
        }
      ],
      "name": "setName",
      "outputs": [],
      "stateMutability": "nonpayable",
      "type": "function"
    }
  ],
  "bytecode": "0x608060405234801561001057600080fd5b506040516106c53803806106c583398101604081905261002f9161006a565b600061003b82826101bc565b5050600180546001600160a01b0319163317905561027b565b634e487b7160e01b600052604160045260246000fd5b6000602080838503121561007d57600080fd5b82516001600160401b038082111561009457600080fd5b818501915085601f8301126100a857600080fd5b8151818111156100ba576100ba610054565b604051601f8201601f19908116603f011681019083821181831017156100e2576100e2610054565b8160405282815288868487010111156100fa57600080fd5b600093505b8284101561011c57848401860151818501870152928501926100ff565b600086848301015280965050505050505092915050565b600181811c9082168061014757607f821691505b60208210810361016757634e487b7160e01b600052602260045260246000fd5b50919050565b601f8211156101b757600081815260208120601f850160051c810160208610156101945750805b601f850160051c820191505b818110156101b3578281556001016101a0565b5050505b505050565b81516001600160401b038111156101d5576101d5610054565b6101e9816101e38454610133565b8461016d565b602080601f83116001811461021e57600084156102065750858301515b600019600386901b1c1916600185901b1785556101b3565b600085815260208120601f198616915b8281101561024d5788860151825594840194600190910190840161022e565b508582101561026b5787850151600019600388901b60f8161c191681555b5050505050600190811b01905550565b61043b8061028a6000396000f3fe608060405234801561001057600080fd5b50600436106100415760003560e01c806306fdde03146100465780638da5cb5b14610064578063c47f00271461008f575b600080fd5b61004e6100a4565b60405161005b91906101a6565b60405180910390f35b600154610077906001600160a01b031681565b6040516001600160a01b03909116815260200161005b565b6100a261009d3660046101ef565b610132565b005b600080546100b1906102a0565b80601f01602080910402602001604051908101604052809291908181526020018280546100dd906102a0565b801561012a5780601f106100ff5761010080835404028352916020019161012a565b820191906000526020600020905b81548152906001019060200180831161010d57829003601f168201915b505050505081565b600061013e8282610329565b508060405161014d91906103e9565b6040519081900381209033907f8aef967fa2f5c66c307439da2e48a762d028b0397db13bd1b237894503f5eb7e90600090a350565b60005b8381101561019d578181015183820152602001610185565b50506000910152565b60208152600082518060208401526101c5816040850160208701610182565b601f01601f19169190910160400192915050565b634e487b7160e01b600052604160045260246000fd5b60006020828403121561020157600080fd5b813567ffffffffffffffff8082111561021957600080fd5b818401915084601f83011261022d57600080fd5b81358181111561023f5761023f6101d9565b604051601f8201601f19908116603f01168101908382118183101715610267576102676101d9565b8160405282815287602084870101111561028057600080fd5b826020860160208301376000928101602001929092525095945050505050565b600181811c908216806102b457607f821691505b6020821081036102d457634e487b7160e01b600052602260045260246000fd5b50919050565b601f82111561032457600081815260208120601f850160051c810160208610156103015750805b601f850160051c820191505b818110156103205782815560010161030d565b5050505b505050565b815167ffffffffffffffff811115610343576103436101d9565b6103578161035184546102a0565b846102da565b602080601f83116001811461038c57600084156103745750858301515b600019600386901b1c1916600185901b178555610320565b600085815260208120601f198616915b828110156103bb5788860151825594840194600190910190840161039c565b50858210156103d95787850151600019600388901b60f8161c191681555b5050505050600190811b01905550565b600082516103fb818460208701610182565b919091019291505056fea2646970667358221220f8d1f6b255d71c26b55708e81dd84e87daf72bdfaae90a9d39786a6ac6b3222f64736f6c63430008110033",
  "linkReferences": {},
  "deployedLinkReferences": {}
}